:100000000040002045020000910200009102000023
:100010009102000091020000910200009102000094
:100020009102000091020000910200009102000084
:10003000910200009102000091020000F9140000FA
:100040009102000091020000910200009102000064
:100050009102000091020000910200009102000054
:100060009102000091020000910200009102000044
:10007000910200009102000045150000910200006D
:100080009102000091020000910200009102000024
:100090009102000091020000910200009102000014
:1000A0009102000091020000910200009102000004
:1000B0009102000091020000910200000348044BED
:1000C000834202D0034B03B118477047140100204C
:1000D00014010020000000000548064B1B1AD90F30
:1000E00001EBA301491002D0034B03B1184770473D
:1000F00014010020140100200000000010B5064C7F
:10010000237843B9FFF7DAFF044B13B10448AFF388
:1001100000800123237010BD1401002000000000A6
:10012000EC15000008B5054B1BB105490548AFF3B8
:100130000080BDE80840FFF7CFBF00BF000000000F
:1001400018010020EC150000A3F5803A704700BFAD
:10015000174B002B08BF134B9D46FFF7F5FF0021FF
:100160008B460F461348144A121A00F03DF80E4B06
:10017000002B00D098470D4B002B00D09847002053
:10018000002104000D000D48002802D00C48AFF3F8
:10019000008000F031F82000290001F065F900F03E
:1001A00011F800BF0000080000000000000000007F
:1001B00000400020140100203C010020000000004D
:1001C0000000000008B5064B044613B10021AFF350
:1001D0000080044B1B6803B19847204600F030F8BC
:1001E000000000003001002003460244934200D189
:1001F000704703F8011BF9E770B500260C4D0D4C54
:10020000641BA410A64209D101F0B4F900260A4DDE
:100210000A4C641BA410A64205D170BD55F8043BDE
:1002200098470136EEE755F8043B98470136F2E768
:100230000C0100200C0100200C0100201001002006
:10024000FEE700BF80B584B000AF00F0CFF80D4BE3
:10025000FB600D4BBB600C4B7B600C4B3B600AE0C2
:10026000FA68131DFB60BB68191DB96012681A603B
:100270007B6804337B607A683B689A42F0D3FFF76F
:1002800067FF00BFF81500000000002014010020E7
:1002900080B400AF00BFFDE780B400AF034BDB6C60
:1002A0001B0EDBB21846BD4680BC7047B081E00F24
:1002B00080B582B000AF00F015F87860074B5B683E
:1002C00003F00F037A6822FA03F37B60044A7B6829
:1002D00013607B6818460837BD4680BD00800C401F
:1002E0000800002080B582B000AF354BDB6A03F414
:1002F0007053B3F5005F09D0B3F5005F12D8B3F5C2
:10030000006F0BD0B3F5805F04D00BE02D4B1B6862
:100310007B604FE04FF400437B604BE02A4B1B684F
:100320007B6047E0264BDB6803F4E063B3F5A06F26
:100330001AD0B3F5A06F39D8B3F5806F17D0B3F5E5
:10034000806F33D8B3F5407F14D0B3F5407F2DD8FC
:10035000B3F5007F11D0B3F5007F27D8002B1AD05A
:10036000B3F5807F0CD021E0184B7B6021E0184B67
:100370007B601EE0174B7B601BE0174B7B6018E037
:10038000FFF78AFF0346122B02D9144B7B6010E063
:10039000134B7B600DE0FFF77FFF0346122B02D962
:1003A000104B7B6005E0104B7B6002E000237B601C
:1003B00000BF00BF7B6818460837BD4680BD00BF40
:1003C00000800C400400002000000020003FAB0132
:1003D000406F4001809FD500C0D8A70040B56400A1
:1003E000C0CF6A00804F120040420F0080B400AFBF
:1003F000034B044A9A6000BFBD4680BC704700BFF3
:1004000000ED00E00000000080B400AF4FF40043B6
:100410001846BD4680BC704780B400AF024B1B68D5
:100420001846BD4680BC70470400002080B487B0E9
:1004300000AFF860B9607A60FB6803F1424303F5EE
:100440008013DA00BB6813449B007B617B697A6888
:100450001A6000BF1C37BD4680BC704780B485B0B1
:1004600000AF78607B68002B02D07B68B3F5004F4B
:100470007B68B3FA83F3C3F11F03FB60FB68184684
:100480001437BD4680BC704780B483B000AF044BC6
:100490007B607B6818460C37BD4680BC704700BF48
:1004A000809FD50080B582B000AF0D4800F0EEF916
:1004B0000346FB70FB78072B05D0092B07D1FFF70C
:1004C00011FF786006E0FFF7DFFF786002E00023AD
:1004D0007B6000BF7B6818460837BD4680BD00BF03
:1004E00006000E0080B584B000AF78600023BB60CA
:1004F0007B68254A934203D07B68244A934200E0FC
:1005000000BF786800F0C2F90346FB607B681E4AB2
:10051000934204D07B681D4A934206D00CE01C4BEA
:100520009B6A03F00303FB6006E0194B9B6A9B0880
:1005300003F00303FB6000BFFB68032B1BD801A281
:1005400052F823F071050000550500005D0500001C
:1005500065050000FFF758FFB8600FE0FFF75CFF8C
:10056000B8600BE0FFF7A4FE03465B08BB6005E044
:100570000023BB6002E00023BB6000BFBB681846DD
:100580001037BD4680BD00BF02001E0003002000E2
:1005900000800C4080B483B000AF7860094B5B6D85
:1005A00003F00103002B07D100BF064B1A6D7B68D7
:1005B0001340002BF9D100E000BF0C37BD4680BCD2
:1005C000704700BF00800C4080B586B000AF7860F7
:1005D0000B46FB7000233B617B681B0A03F00F0393
:1005E000013B092B3ED801A252F823F01B06000064
:1005F00021060000150600006506000065060000E3
:1006000027060000310600006506000065060000B0
:100610003B060000154B7B6112E0154B7B610FE040
:10062000144B7B610CE0144B7B6101233B6107E0C1
:10063000124B7B6110233B6102E0114B7B6100BFD9
:100640007B681B0B03F01F03FB603B69002B02D090
:100650003869FFF79FFFFB781A46F9687869FFF75A
:10066000E5FE00E000BF1837BD4680BD40800C406D
:1006700008800C4044800C4058800C4060800C4046
:1006800078800C4090B585B000AF78607B6803F44B
:100690007813B3F5781F00F0E480B3F5781F00F20B
:1006A000E680B3F5301F00F09D80B3F5301F00F2F7
:1006B000DE80B3F5281F00F08280B3F5281F00F21A
:1006C000D680B3F5001F00F0A480B3F5001F00F240
:1006D000CE80B3F5F01F52D0B3F5F01F00F2C78003
:1006E000B3F5E01F00F0A780B3F5E01F00F2BF8074
:1006F000B3F5D01F00F09280B3F5D01F00F2B780A1
:10070000B3F5B01F4DD0B3F5B01F00F2B080B3F514
:10071000901F39D0B3F5901F00F2A980B3F5801F68
:1007200000F09B80B3F5801F00F2A180B3F5602F2D
:1007300000F08F80B3F5602F00F29980B3F5802F21
:100740000DD0B3F5802F00F29280002B03D0B3F5CB
:10075000003F10D08BE0FFF7C5FDF8608AE0FFF79F
:10076000C1FDF860464B9B6803F00F03FA6822FA5C
:1007700003F3FB607EE0FFF79BFDF8607AE0414801
:10078000FFF7B0FEF86075E03E48FFF7ABFEF8609B
:100790003B4B9B6E03F00F03FA6822FA03F3FB60F6
:1007A00068E03848FFF79EFEF860354B9B6E1B09EA
:1007B00003F00F03FA6822FA03F3FB605AE03148B2
:1007C000FFF790FEF8602E4B9B6E1B0A03F00304AC
:1007D0001020FFF743FE03462344FA6822FA03F38E
:1007E000FB6047E02748FFF77DFEF860244B9B6ED7
:1007F0001B0A03F00303FA6822FA03F3FB60204BA1
:10080000DB6F03F007030133FA68B2FBF3F3FB601D
:1008100030E01D48FFF766FEF8602BE01A48FFF74E
:1008200061FEF860164B1B6F03F00303FA6822FAAF
:1008300003F3FB601EE01448FFF754FEF860104B12
:100840001B6F1B0903F00303FA6822FA03F3FB6032
:1008500010E0FFF727FEF8600CE0FFF715FEF860E8
:1008600008E0FFF725FD03465B08FB6002E000237C
:10087000FB6000BFFB6818461437BD4690BD00BF43
:1008800000800C4002001E000300200080B485B0F0
:1008900000AF78600123FB737B6803F00F03BB603C
:1008A000BB68013B052B64D801A252F823F000BFBE
:1008B000C90800000509000039090000730900009B
:1008C000730900006D0900002E4BDB6A03F47053BE
:1008D000B3F5005F09D0B3F5005F0FD8B3F5006F33
:1008E00009D0B3F5805F03D008E00223FB7308E072
:1008F0000323FB7305E00423FB7302E00523FB7372
:1009000000BF39E01F4B9B6A03F00303032B0CD09D
:10091000032B0DD8012B02D0022B03D008E00323B8
:10092000FB7308E00223FB7305E00623FB7302E080
:100930000123FB7300BF1FE0124B9B6A03F00C0303
:100940000C2B0CD00C2B0DD8042B02D0082B03D071
:1009500008E00323FB7308E00223FB7305E0062392
:10096000FB7302E00123FB7300BF05E00723FB7369
:1009700002E00023FB7300BFFB7B18461437BD4623
:1009800080BC704700800C4080B483B000AFEFF3B0
:1009900010833B603B687B6072B600BF7B68184683
:1009A0000C37BD4680BC704780B483B000AF786020
:1009B0007B68002B01D162B600BF00BF0C37BD467B
:1009C00080BC704780B483B000AF03463960FB71D0
:1009D000FB79002B0DD0FB79012B0AD0FB79022B80
:1009E00007D0FB79032B04D0FB79042B01D0FB79D2
:1009F000052B01223B6802FA03F30749FA791846EE
:100A00001346DB0013449B000B441433186000BFF3
:100A10000C37BD4680BC70470060004080B483B096
:100A200000AF03463960FB71FB79002B0DD0FB79D9
:100A3000012B0AD0FB79022B07D0FB79032B04D0C2
:100A4000FB79042B01D0FB79052B01223B6802FACC
:100A500003F30749FA7918461346DB0013449B0059
:100A60000B441033186000BF0C37BD4680BC704784
:100A70000060004080B584B000AFB9607B60034681
:100A8000FB731346BB73FB7B002B0DD0FB7B012B51
:100A90000AD0FB7B022B07D0FB7B032B04D0FB7B14
:100AA000042B01D0FB7B052BBB7B002B0DD07B687F
:100AB000002B05D0FB7BB9681846FFF7AFFF04E0B9
:100AC000FB7BB9681846FFF77DFFBB68072B20D872
:100AD0002B49FA7B1346DB0013449B000B44043381
:100AE0001A68BB689B000F2101FA03F3DB43134034
:100AF000B97BBA68920001FA02F211462048FA7BEB
:100B000019431346DB0013449B000344043319606C
:100B100021E01B49FA7B1346DB0013449B000B4486
:100B200008331A68BB68083B9B000F2101FA03F3E6
:100B3000DB431340B97BBA68083A920001FA02F22B
:100B400011460F48FA7B19431346DB0013449B0000
:100B5000034408331960BB7B002B0DD17B68002B4D
:100B600005D0FB7BB9681846FFF758FF04E0FB7B14
:100B7000B9681846FFF726FF00BF1037BD4680BD95
:100B80000060004080B586B000AFF860B9607A6060
:100B9000FB70BB68002B03D12648FFF773FDB860DC
:100BA000FB78602B13D0602B3FDC402B0CD0402B0C
:100BB0003BDC002B02D0202B03D036E010237B61DE
:100BC00008E008237B6105E006237B6102E0042343
:100BD0007B6100BFBB689A007B69796801FB03F306
:100BE0005B0813443B617B697A6802FB03F33A6953
:100BF000B2FBF3F33B613B69043B3B613B699B0107
:100C00003B613A690C4B13403B61FB681B6823F066
:100C10006002FB681A60FB681A68FB781A43FB687D
:100C20001A60FB683A695A6100E000BF1837BD4698
:100C300080BD00BF40810400C0FF1F0080B485B0AC
:100C400000AF78600B46FB707B68104A93420AD075
:100C50007B680F4A934206D07B680E4A934202D0CB
:100C60007B680D4A9342FB78DB43FB60FB6803F033
:100C70000503FB60FB685A007B68DA60FA787B68E2
:100C8000DA6000BF1437BD4680BC704700C000402A
:100C900000C4004000C8004000E0004080B582B0C1
:100CA00000AF786039607B681B4A93420AD07B684A
:100CB0001A4A934206D07B68194A934202D07B6855
:100CC000184A9342786800F02FF83B685B7B1A461D
:100CD0003B681B8A13433A68D2891A437B685A607F
:100CE0003B6859683B689A683B681B7B7868FFF7EC
:100CF00049FF3B689B7C002B05D07B681B6843F455
:100D000080327B681A603B681B781A467B68DA6021
:100D100000BF0837BD4680BD00C0004000C4004091
:100D200000C8004000E0004080B483B000AF7860AD
:100D30007B681A4A93420AD07B68194A934206D0CC
:100D40007B68184A934202D07B68174A93427B68BB
:100D500040F6AA62DA607B6800221A607B6841F282
:100D600005025A607B6800229A607B6800225A6103
:100D70007B680022DA647B6841F6F9729A647B68CA
:100D800000225A657B68054A934202D17B680022A3
:100D90001A6500BF0C37BD4680BC704700C00040DC
:100DA00000C4004000C8004000E0004080B483B0B0
:100DB00000AF786000BF7B681B6903F08003002BE5
:100DC000F9D07B68DB69DBB218460C37BD4680BCC6
:100DD000704780B483B000AF78600B46FB7000BFF3
:100DE0007B681B6903F04003002BF9D0FA787B681D
:100DF0005A6300BF0C37BD4680BC704780B485B0D5
:100E000000AF78601A4B5B69DBB29B00DBB203F08A
:100E10003C03FB73164B1B699B09DBB203F0030316
:100E2000DAB2FB7B1343FB737B68FA7B9A70104B3F
:100E30001B69DBB203F03F03DAB27B685A700C4BDC
:100E40009B691B09DBB21B01FB73094BDB691B09A7
:100E5000DBB203F00F03DAB2FB7B1343FB737B6857
:100E6000FA7B1A7000BF1437BD4680BC704700BFC4
:100E7000D0FF0FE080B400AF064B41F67132DA6369
:100E8000044B9B68034A43F00103936000BFBD46D7
:100E900080BC704700000C4080B483B000AF786025
:100EA0007B681B6818460C37BD4680BC7047000045
:100EB00080B483B000AF0346FB71FB7903F01F02DF
:100EC000064997F907305B09012000FA02F241F860
:100ED000232000BF0C37BD4680BC704700E100E016
:100EE00080B483B000AF0346FB71FB7903F01F02AF
:100EF000074997F907305B09012000FA02F26033D5
:100F000041F8232000BF0C37BD4680BC704700BFAE
:100F100000E100E080B483B000AF03463960FB71AC
:100F200097F90730002B0BDA3B68DAB20C49FB79F2
:100F300003F00F03043B5201D2B20B441A7609E0CE
:100F40003B68DAB2074997F907305201D2B20B4435
:100F500083F8002300BF0C37BD4680BC704700BF3C
:100F600000ED00E000E100E080B483B000AF786005
:100F700039607B683A689A6400BF0C37BD4680BC14
:100F8000704780B483B000AF786039607B68DA6CFA
:100F90003B681A437B68DA6400BF0C37BD4680BCEF
:100FA00070470000B0B586B000AF012304220221D3
:100FB0000220FFF75FFD0023012203210220FFF73B
:100FC00059FD214B3C1D1D460FCD0FC42B682360DE
:100FD00000233B710023BB6000233B7405237B741B
:100FE00000237B824FF48053BB824FF4E133FB60DC
:100FF000164B1B683A1D11461846FFF74FFE134B60
:101000001B6841F6FF711846FFF7AEFF0F4B1B68D8
:1010100004211846FFF7B5FF0E20FFF761FF0E20F1
:10102000FFF746FF00210E20FFF774FF074B1B68F8
:1010300003225A65054B1B6805211846FFF7FEFD84
:1010400000BF1837BD46B0BDA01500000C00002041
:1010500080B584B000AF78600B46FB700023FB7353
:101060000BE00A4B1868FB7B7A6813441B7819461F
:10107000FFF7AFFEFB7B0133FB73FA7BFB789A42F1
:10108000EFD300BF00BF1037BD4680BD0C0000206D
:1010900080B588B000AF78607B681B78DBB2312BFD
:1010A00007D114213048FFF7D3FF7B6800221A7064
:1010B00056E07B681B78DBB2322B24D114212B48FD
:1010C000FFF7C6FF7B6800221A704FF4FF337B6185
:1010D000274B3B61FFF758FCF860FFF7CBFE7869C0
:1010E00000F05AFA01223969786900F051FA4FF09C
:1010F0007E637B6101223969786900F049FAF868FA
:10110000FFF752FC2CE07B681B78DBB2332B27D136
:101110007B6800221A7018211648FFF799FF0023F8
:10112000BB611548FFF7B8FEB8610023FB770EE0FE
:10113000FB7FC3F10303DB00BA69DA40FB7FD2B265
:1011400020333B4403F8182CFB7F0133FB77FB7FF4
:10115000032BEDD907F1080304211846FFF778FFA8
:1011600000BF2037BD4680BD1000002024000020B5
:1011700063AA0A0038000020FE81E00F80B483B02B
:1011800000AF03463960FB7197F90730002B0BDA8B
:101190003B68DAB20C49FB7903F00F03043B5201C0
:1011A000D2B20B441A7609E03B68DAB2074997F9E4
:1011B00007305201D2B20B4483F8002300BF0C3732
:1011C000BD4680BC704700BF00ED00E000E100E0DC
:1011D00080B582B000AF78607B68013BB3F1807F5F
:1011E00001D301230FE00A4A7B68013B53600721CA
:1011F0004FF0FF30FFF7C2FF054B00229A60044B0F
:1012000007221A60002318460837BD4680BD00BF7C
:1012100010E000E080B483B000AF03463960FB719A
:10122000FB79002B0DD0FB79012B0AD0FB79022B27
:1012300007D0FB79032B04D0FB79042B01D0FB7979
:10124000052B01223B6802FA03F30749FA79184695
:101250001346DB0013449B000B441433186000BF9B
:101260000C37BD4680BC70470060004080B483B03E
:1012700000AF03463960FB71FB79002B0DD0FB7981
:10128000012B0AD0FB79022B07D0FB79032B04D06A
:10129000FB79042B01D0FB79052B01223B6802FA74
:1012A00003F30749FA7918461346DB0013449B0001
:1012B0000B441033186000BF0C37BD4680BC70472C
:1012C0000060004080B584B000AF524B1B68FB60EB
:1012D000FB681B0E002B15D14F4BBB60BB681B6816
:1012E00023F07002BB681A604C4BBB60BB681B6884
:1012F00023F06042BB681A60BB681B6863F06062E1
:10130000BB681A60FB681B0E032B20D8434BBB60E5
:10131000BB681B6823F4FC52BB681A60404BBB607F
:10132000BB6800221A603F4BBB60BB6800221A609A
:101330003D4BBB60BB6800221A603C4BBB60BB6886
:1013400000221A603A4BBB60BB6800221A603B4621
:101350001846FFF753FD7B78012B15D13B78002B06
:1013600007D12F4BBB60BB681B6843F00202BB6810
:101370001A603B78012B07D82A4BBB60BB681B68FF
:1013800043F00102BB681A602A4B1B68FB60FB68D4
:10139000294A934239D8234BBB60BB681B6843F48E
:1013A0009042BB681A60254B1B681B0A1B0603F0A2
:1013B000FE437B60214B1B681B0403F4FE037A6829
:1013C00013437B601D4B1B6803F4FE437A68134391
:1013D0007B601A4B1B6803F07F037A6813437B60C2
:1013E000174BBB60BB687A681A60164BBB60164B24
:1013F0001B687B60BB687A681A600A4BBB60BB687D
:101400001B6823F49042BB681A6000BF1037BD46CA
:1014100080BD00BFFC81E00F0CA00C4020600C40A0
:1014200040800C4044800C4058800C4060800C4050
:1014300078800C40F081E00FFFB98A4CB481E00F56
:10144000342000402C400040C881E00F80B483B0BD
:1014500000AF786039607B683A689A6400BF0C37E7
:10146000BD4680BC7047000080B500AFFFF72AFF83
:1014700001211B48FFF7A8F801211A48FFF7A4F83B
:1014800001211948FFF7A0F8184B1B68184AA2FB66
:1014900003239B091846FFF79BFE0346002B01D050
:1014A00000BFFDE7FFF77EFD00230422002102209C
:1014B000FFF7E0FA00210220FFF7ACFE4FF4FA70CC
:1014C00000F028F800210220FFF7D0FE4FF4FA7058
:1014D00000F020F80748FFF7DBFD00BFEAE700BF98
:1014E0004081040000C20400002204000800002023
:1014F000D34D62103801002080B400AF044B1B684C
:101500000133034A136000BFBD4680BC704700BF73
:101510003401002080B485B000AF7860084B1B68B0
:10152000FB6000BF064B1A68FB68D31A7A689A42C0
:10153000F8D800BF00BF1437BD4680BC704700BF5D
:101540003401002080B500AF084B1B680421184609
:10155000FFF77CFF054B1B681846FFF727FC034687
:101560001A46034B1A7000BF80BD00BF0C0000205C
:1015700038010020F8B500BFF8BC08BC9E46704793
:10158000F8B500BFF8BC08BC9E46704700000000DC
:101590005FF800F0510000205FF800F0B500002077
:1015A000050000000000000000C20100000500006E
:1015B0000010000057656C636F6D6520746F2062CA
:1015C0006F6F746C616F6465720D0A0A20506C65F0
:1015D00061736520696E707574206F7074696F6EC9
:1015E00020317E3130200D0A0A000000000000008A
:0815F00058EBFF7F0100000031
:1015F8000048E80100800000809FD50000C8004036
:101608004F7074696F6E20312073656C6563746503
:10161800640D0A004F7074696F6E20322073656C18
:1016280065637465640D0A004F7074696F6E2033CA
:101638002052656164206D656D656F72790D0A00D1
:1016480080B485B000AFF860B9607A60144B41F699
:101658007132DA63124B9B68114A43F001039360BD
:101668000F4AFB6813610E4BDB680D4A43F0010318
:10167800D3600B4ABB689361094BDB68084A43F0A7
:101688000803D36000BF064BDB6903F00103002B9E
:10169800F9D100BF00BF1437BD4680BC704700BFFA
:1016A80000000C4080B483B000AF7860124B41F664
:1016B8007132DA63104B9B680F4A43F00103936061
:1016C8000D4A7B6813610C4BDB680B4A43F001033E
:1016D800D360094BDB68084A43F00203D36000BFBC
:1016E800054BDB6903F00103002BF9D100BF00BFF4
:1016F8000C37BD4680BC704700000C402501000037
:04170800FD000000E0
:0400000300000245B2
:00000001FF
